:100000000C945D000C9485000C9485000C94850084
:100010000C9485000C9485000C94BE0D0C94850006
:100020000C9485000C9485000C9485000C9485003C
:100030000C9485000C9485000C9485000C9485002C
:100040000C9442030C9485000C94B2030C948C0322
:100050000C9485000C9485000C9485000C9485000C
:100060000C9485000C9485000000000024002700FB
:100070002A0000000000250028002B0004040404CE
:100080000404040402020202020203030303030342
:10009000010204081020408001020408102001021F
:1000A00004081020000000080002010000030407FB
:1000B0000000000000000000DE0E11241FBECFEF84
:1000C000D8E0DEBFCDBF11E0A0E0B1E0E4E6F1E2B0
:1000D00002C005900D92AA37B107D9F722E0AAE72E
:1000E000B1E001C01D92AB3AB207E1F710E0CDE5F7
:1000F000D0E004C02197FE010E948B10CC35D107BF
:10010000C9F70E94C10D0C94B0100C94000090E04F
:10011000FC01EC55FF4F2491FC01E057FF4F349157
:10012000FC01E458FF4FE491EE23C9F0222339F09B
:10013000233001F1A8F4213019F1223029F1F0E047
:10014000EE0FFF1FEE58FF4FA591B4918FB7F894B3
:10015000EC91611126C030953E233C938FBF0895EA
:100160002730A9F02830C9F0243049F78091800069
:100170008F7D03C0809180008F7780938000DFCFD8
:1001800084B58F7784BDDBCF84B58F7DFBCF809125
:10019000B0008F778093B000D2CF8091B0008F7D78
:1001A000F9CF3E2BDACFCF93DF9390E0FC01E057FD
:1001B000FF4F249184589F4FFC0184918823D1F0F4
:1001C00090E0880F991FFC01E859FF4FA591B49169
:1001D000FC01EE58FF4FC591D49161110EC09FB73D
:1001E000F8948C91E22FE0958E238C932881E22362
:1001F000E8839FBFDF91CF9108958FB7F894EC917A
:10020000E22BEC938FBFF6CF8E50806480937C00FE
:1002100080917A00806480937A0080917A0086FDD4
:10022000FCCF80917800909179000895AF92BF92B1
:10023000CF92DF92EF92FF920F931F93CF93DF93B2
:100240006C017B018B01040F151FEB015E01AE18E1
:10025000BF08C017D10759F06991D601ED91FC9103
:100260000190F081E02DC6010995892B79F7C50130
:10027000DF91CF911F910F91FF90EF90DF90CF9082
:10028000BF90AF900895FC01538D448D252F30E031
:10029000842F90E0821B930B541710F0CF96089593
:1002A00001970895FC01918D828D981761F0A28DC0
:1002B000AE0FBF2FB11D5D968C91928D9F5F9F7386
:1002C000928F90E008958FEF9FEF0895FC01918D3C
:1002D000828D981731F0828DE80FF11D858D90E0A9
:1002E00008958FEF9FEF0895FC01918D228D892F46
:1002F00090E0805C9F4F821B91098F73992708952E
:100300008AE092E00E94740121E0892B09F420E048
:10031000822F08950E94800181110C94000008959D
:1003200080E090E0892B11F00C948A010895FC0183
:10033000A48DA80FB92FB11DA35ABF4F2C91848D46
:1003400090E001968F739927848FA689B7892C93A3
:10035000A089B1898C91837080648C93938D848DF6
:10036000981306C00288F389E02D80818F7D8083F9
:100370000895EF92FF920F931F93CF93DF93EC01B9
:1003800081E0888F9B8D8C8D98131AC0E889F9893C
:10039000808185FF15C09FB7F894EE89FF8960833F
:1003A000E889F98980818370806480839FBF81E0C0
:1003B00090E0DF91CF911F910F91FF90EF90089502
:1003C000F62E0B8D10E00F5F1F4F0F731127E02EDD
:1003D0008C8D8E110CC00FB607FCFACFE889F98915
:1003E000808185FFF5CFCE010E949701F1CFEB8D83
:1003F000EC0FFD2FF11DE35AFF4FF0829FB7F894E9
:100400000B8FEA89FB8980818062CFCFCF93DF9306
:10041000EC01888D8823B9F0AA89BB89E889F9891C
:100420008C9185FD03C0808186FD0DC00FB607FC51
:10043000F7CF8C9185FFF2CF808185FFEDCFCE0184
:100440000E949701E9CFDF91CF910895FC010190BF
:100450000020E9F73197AF01481B590BBC018AE036
:1004600092E00C9416018F929F92AF92BF920F93DD
:100470001F93CF93DF93CDB7DEB7A1970FB6F89454
:10048000DEBF0FBECDBF19A2423008F44AE08E0194
:100490000F5D1F4F842E912CB12CA12CA50194012E
:1004A0000E945A10E62FB901CA01EA30F4F4E05D67
:1004B000D801EE938D01232B242B252B79F790E087
:1004C00080E0109719F0CD010E942602A1960FB688
:1004D000F894DEBF0FBECDBFDF91CF911F910F917A
:1004E000BF90AF909F908F900895E95CE1CF0F93FC
:1004F0001F9360E08EE00E94D30060E08FE00E94D6
:10050000D30061E082E00E94D30061E083E00E94BA
:10051000D300EAE0F2E0A089B18982E08C93A4855F
:10052000B5851C92A685B7858FEC8C93108EA48917
:10053000B58986E08C93A289B3898C9180618C9374
:10054000A289B3898C9188608C93A289B3898C919C
:1005500080688C930288F389E02D80818F7D808371
:1005600010E000E021E040E850E069E171E080E265
:1005700093E00E94640921E040E850E06BE271E002
:1005800085E093E00E94640921E040E850E06AE3DE
:1005900071E088EE92E00E94640921E040E850E0BA
:1005A00069E471E085EE92E00E94640921E040E890
:1005B00050E06CE571E082EE92E00E9464091F91C8
:1005C0000F9108950E947E06FDCF0E947E06FDCF0A
:1005D00080917F018B50853490F480917E018D3223
:1005E00058F460E082E00E94870061E083E00E94AE
:1005F00087000E947E06ECCF61E0893308F460E05A
:1006000082E00E94870060E0F1CF8BEFC82E83E08C
:10061000D82EE12CF12C8FE00E9404019C01ACE467
:10062000BFEF0E949110A70196010E9430102C5438
:100630003F4F4F4F5F4F20937F010E947E06EBCFCD
:1006400085ECC82E83E0D82EE12CF12C8EE00E94A0
:1006500004019C01990F440B550B2A5031094109A3
:100660005109AAE5B0E00E944F10A70196010E942F
:100670003010265F3F4F4F4F5F4F20937E010E9407
:100680007E06E4CF1F920F920FB60F9211242F9384
:100690003F938F939F93AF93BF938091AD019091C0
:1006A000AE01A091AF01B091B0013091AC0123E057
:1006B000230F2D3758F50196A11DB11D2093AC01D4
:1006C0008093AD019093AE01A093AF01B093B001C0
:1006D0008091A8019091A901A091AA01B091AB01CC
:1006E0000196A11DB11D8093A8019093A901A0932B
:1006F000AA01B093AB01BF91AF919F918F913F91B0
:100700002F910F900FBE0F901F90189526E8230F82
:100710000296A11DB11DD2CF1F920F920FB60F925C
:1007200011242F933F934F935F936F937F938F93F6
:100730009F93AF93BF93EF93FF938AE092E00E9461
:100740009701FF91EF91BF91AF919F918F917F9111
:100750006F915F914F913F912F910F900FBE0F902E
:100760001F9018951F920F920FB60F9211242F937E
:100770008F939F93EF93FF93E0911A02F0911B02E6
:100780008081E0912002F091210282FD1BC09081C6
:10079000809123028F5F8F7320912402821741F092
:1007A000E0912302F0E0E65FFD4F958F80932302F6
:1007B000FF91EF919F918F912F910F900FBE0F900E
:1007C0001F9018958081F4CF0FB6F8940F92FC011A
:1007D000928D0F900FBE81E0911180E00895CF932C
:1007E000DF93FC01A085B1858281938124813581CD
:1007F000EC013D832C83C481D5819B838A83119630
:100800008D919C9112978E179F0721F41296DC937D
:10081000CE931197118610868C9181508C938C9178
:10082000DF91CF9108950F931F93CF93DF938C01A6
:10083000FB0180819181D80113968F3F9807F1F4D5
:10084000E801AF81B88512968D919C91139793839F
:100850008283EC01FD83EC83B583A4831396FC9320
:10086000EE93129711870087F80180818F5F808354
:10087000DF91CF911F910F910895D90112962D917B
:100880003C911397E9014881598184179507A8F78E
:10089000DACFFC010396928381832FEF3FEF3483FD
:1008A0002383968385839087878310820895FC0134
:1008B00073836283918780874617570790F0421BA6
:1008C000530B8485958548175907C8F4BF016E5F9F
:1008D0007F4F80918801909189010E94130480E0EC
:1008E00008954217530718F46217730740F4BF01C5
:1008F0006E5F7F4F80918A0190918B01EECF81E0F6
:100900000895EF92FF920F931F93CF93DF93EC0123
:100910008B017A016C857D85600F711F9801A7019D
:10092000CE010E945704811107C0DF91CF911F9122
:100930000F91FF90EF9008958C859D85080F191FEA
:10094000E889F989CE010995E5CFEF92FF920F93DF
:100950001F93CF93DF938C017B01E0918A01F0918B
:100960008B010580F681E02DC681D781CE010296EC
:100970000E94EF038A8982FF0FC0A701B801CE0150
:100980000E948104E889F989CE01DF91CF911F91FE
:100990000F91FF90EF9009948E7F8A8BF3CFE091B7
:1009A0008A01F0918B01808181110DC080918801B5
:1009B0009091890190938B0180938A01F093890132
:1009C000E093880108950580F681E02D6FEF7FEFB9
:1009D000808191810E94A504E2CFFF920F931F9323
:1009E000CF93DF93EC01F62E0091A2011091A301A9
:1009F00080917A0190917B0102960E94EF03CF3F94
:100A0000DC07E9F5FF20D9F1E091B601F091B701DB
:100A1000A0917A01B0917B011596FC93EE93149707
:100A2000A0917A01B0917B018481958117969C9366
:100A30008E93169780917A0190917B01A481B58164
:100A4000029613969C938E93129780917A019091BF
:100A50007B01029695838483E0917A01F0917B017A
:100A600085EB91E0938782878091B5018F5F8093BA
:100A7000B501DF91CF911F910F91FF900895C00FA5
:100A8000D11FE0917A01F0917B01D383C283609101
:100A90007A0170917B01C017D10768F48091B10190
:100AA0009091B2016E5F7F4FDF91CF911F910F91B7
:100AB000FF900C9413048091B3019091B4016E5F88
:100AC0007F4F0E9413048091A4019091A501C81743
:100AD000D90778F6D093A501C093A401CACFE091BD
:100AE000B301F091B4018081811107C08FEF9FEFB6
:100AF0009093A5018093A4010895E091B301F09132
:100B0000B4010580F681E02D80819181F1CFCF93F2
:100B1000DF93DC011596ED91FC910680F781E02DC5
:100B2000A489B5898685978520893189EC013D8323
:100B30002C83C089D1899B838A83CF010C9611961F
:100B40002D913C9112972817390721F41296DC93C6
:100B5000CE931197158A148A2C9121502C932091B1
:100B60008201211157C0A285B38584819581268198
:100B70003781EC013D832C83C681D7819B838A8397
:100B8000CF01029611962D913C91129728173907A3
:100B900021F41296DC93CE931197138612862C9132
:100BA00021502C93C689209106022C1710F4C09373
:100BB000060229E02C9FE0011124CE51DE4F09806E
:100BC000DA81C02DD583C4834C815D8157834683F0
:100BD000AC81BD8113969C938E9312979D838C83D9
:100BE000A689A29FD0011124AE51BE4FB387A28720
:100BF0008C918F5F8C93A0917A01B0917B01968943
:100C000056968C91891730F581E080938701DF91AA
:100C1000CF910895A091C801B091C901B787A68767
:100C200014962D913C911597318B208B1496CD9174
:100C3000DC9115979B838A8315969C938E931497CA
:100C400087EC91E0958B848B8091C7018F5F8093B7
:100C5000C701D1CF80E0DBCFEF92FF920F931F93BC
:100C6000CF93DF93EC010FB6F8940F921E8D7C01A9
:100C700081E1E80EF11C01E01116D4F08FEF8E8FA8
:100C80000F900FBE0FB6F8940F921D8D7E0188E075
:100C9000E80EF11C01E01116B4F08FEF8D8F0F906C
:100CA0000FBEDF91CF911F910F91FF90EF900895AC
:100CB0008989882319F3C7010E9487058111009350
:100CC00087011150D9CF8885882339F3C7010E9445
:100CD00087058111009387011150DDCF0FB6F8947D
:100CE0000F928091A2019091A3010F900FBE0895E1
:100CF000809182018F5F8093820108950F920FB6D9
:100D0000F8940F921F9211242F923F924F925F926C
:100D10006F927F928F929F92AF92BF92CF92DF920B
:100D2000EF92FF920F931F932F933F934F935F93F5
:100D30006F937F938F939F93AF93BF93CF93DF93E3
:100D4000EF93FF93A0917A01B0917B010DB60D92C4
:100D50000EB60D9280918201882321F081E080936C
:100D600087015DC010928701A0917A01B0917B014B
:100D7000E0917A01F0917B012D913C918789908DD2
:100D800082179307A8F080917A0190917B0180915E
:100D90007A0190917B01259A2D9A2FEF87EA91E6AF
:100DA000215080409040E1F700C000001D9AF5CF2F
:100DB0002091060289E001C02150422F50E0849F1B
:100DC000F001859FF00D1124EE51FE4F9081992383
:100DD00099F3A181B28112966D917C9172836183A6
:100DE000289FC00111248B519E4F6817790721F469
:100DF000858196819283818389E0849FF001859F1C
:100E0000F00D1124EE51FE4F0180F281E02D86811C
:100E1000978190937B0180937A0120930602A091A1
:100E20007A01B0917B01CD91CDBFDD91DEBFFF9105
:100E3000EF91DF91CF91BF91AF919F918F917F9172
:100E40006F915F914F913F912F911F910F91FF9063
:100E5000EF90DF90CF90BF90AF909F908F907F905A
:100E60006F905F904F903F902F901F900F900FBE0C
:100E70000F9008958F929F92BF92CF92DF92EF9240
:100E8000FF920F931F93CF93DF930FB6F8940F92B7
:100E90008091820181508093820180918201882318
:100EA00079F080E00F900FBEDF91CF911F910F91ED
:100EB000FF90EF90DF90CF90BF909F908F9008951C
:100EC00080910902882369F3E090CC01F090CD0174
:100ED000F0E0E0E039E041E08091C70181115EC0BF
:100EE000EF2B11F00E946F05E0908001F0908101DE
:100EF000E114F10409F47DC189E0D82ECC24C39417
:100F00000FEF1FEF80918201811161C1C091A20199
:100F1000D091A3014E018FEF881A980A9092A301F5
:100F20008092A20181149104B9F48091B30190914F
:100F3000B4012091B1013091B2013093B4012093FA
:100F4000B3019093B2018093B101809186018F5FCC
:100F5000809386010E946F058091A4019091A50164
:100F6000B12C8816990608F026C1E0917A01F0911B
:100F70007B01E689DE9EF0011124EE51FE4F808157
:100F8000823010F0BB24B39480918701811103C09B
:100F9000BB2009F425C1C092870122C1D701169652
:100FA000ED91FC91A489B5896685778580899189C1
:100FB000EB019D838C8380899189EC017B836A831B
:100FC000BF01645F7F4F11960D911C911297061718
:100FD000170721F412969C938E931197158A148A01
:100FE0008C9181508C93A285B38584819581668193
:100FF0007781EC017D836C8366817781EB019B8334
:101000008A83CF01029611960D911C9112970817B1
:10101000190721F412967C936E931197138612860A
:101020002C9121502C93A689209106022A1710F4A6
:10103000A09306023A9FD0011124AE51BE4F1196E3
:101040000D90BC91A02DB583A48314966D917C91D5
:1010500015977783668314966D917C911597EB01B4
:101060009B838A8315969C938E9314979689939F5E
:10107000D0011124AE51BE4FB387A2878C918F5FF0
:101080008C93A0917A01B0917B0156968C9189172F
:1010900008F022CF409387011FCFE091B301F09178
:1010A000B4010580F681E02D0680F781E02D828174
:1010B00093818816990628F49093A5018093A40142
:1010C00054CFC285D3858481958126813781DC0107
:1010D00015963C932E93149726813781D901139648
:1010E0009C938E931297CF01029649815A8148179B
:1010F000590711F43A8329831386128628812150D7
:101100002883A489B5891097F9F026853785408909
:101110005189E9015D834C8340895189EA013B8310
:101120002A8311966D917C9112979F01245F3F4F06
:101130006217730721F412965C934E931197158AE8
:10114000148A2C9121502C93A689209106022A17EB
:1011500010F4A0930602DA9ED0011124AE51BE4FC6
:1011600011960D90BC91A02DB583A48314962D915A
:101170003C9115973783268314962D913C911597B2
:10118000E9019B838A8315969C938E931497968985
:101190009D9DD0011124AE51BE4FB387A2878C9183
:1011A0008F5F8C93E0917A01F0917B01868989179A
:1011B00010F4BB24B394E091B301F091B4018081A9
:1011C00081116BCF1093A5010093A401CECE809125
:1011D000800190918101019690938101809380011B
:1011E000D1E0ED1AF10809F08DCE10928101109234
:1011F000800180918701882309F453CE0E947E06E6
:1012000081E050CECF93DF93009751F0EC010E9424
:101210007806CE010E94A70FDF91CF910C943A0778
:10122000DF91CF91089500E010E08091830181115A
:101230000CC08091E201823010F00E947E06011500
:10124000110599F30E948A01F0CF0FB6F8940F921E
:10125000E091C301F091C401C681D781CE0102960D
:101260000E94EF03809109028150809309028091CE
:1012700083018150809383010F900FBE8F89988DD9
:101280000E940209CE010E940209CFCFCF93DF93C3
:10129000EC010E947806CE010E940B0FEC010E9427
:1012A0003A07209769F4259A2D9A2FEF80E792E06C
:1012B000215080409040E1F700C000001D9AF5CF1A
:1012C000CE01DF91CF9108957F928F929F92AF923E
:1012D000BF92CF92DF92EF92FF920F931F93CF9323
:1012E000DF93982EA92E762E872E7A01B22ECA0170
:1012F0000E9446096C01892B09F4EDC088E290E058
:101300000E944609EC01892B09F4E2C088E2DE0163
:101310001D928A95E9F7D88ECF8AA70165EA70E019
:10132000C6010E94A910B1E0EB1AF108EF89F88D0F
:10133000EE0DFF1D672D782DCE0149969B01285F8C
:101340003F4FDB014D91BD01DC014D93CD01AB0160
:1013500041505109DA014C91442319F06217730787
:1013600081F718A2BE8AB9A21B861A861D8A1C8A1A
:10137000D987C88784E090E08B1991099D878C8775
:10138000DB8BCA8B9082DF011197AC9211971C9274
:10139000119780E88C9311971C9257971C92119784
:1013A0001C92B397F983E8830115110519F0F80130
:1013B000D183C0830FB6F8940F92809109028F5F9A
:1013C0008093090280917A0190917B01892B09F029
:1013D00091C0D0937B01C0937A0180910902813042
:1013E00081F582EE91E00E9449048BEE91E00E942B
:1013F000490484EF91E00E9449048DEF91E00E943E
:10140000490489ED91E00E94490480ED91E00E9439
:10141000490487EC91E00E9449048EEB91E00E9420
:10142000490485EB91E00E94490489ED91E0909395
:10143000B4018093B30180ED91E09093B201809369
:10144000B101809107028F5F80930702AE8980917E
:1014500006028A1710F4A093060229E02A9FD00101
:101460001124AE51BE4F11960D90BC91A02DBD839D
:10147000AC8314968D919C9115979F838E831496BF
:10148000ED91FC911597CE01029693838283159678
:101490009C938E931497EE89E29FF0011124EE51F4
:1014A000FE4FFB87EA8780818F5F80830F900FBE9E
:1014B00080910802882351F0E0917A01F0917B013C
:1014C00096898E89981710F40E947E0681E004C0E8
:1014D000C6010E9402098FEFDF91CF911F910F91FA
:1014E000FF90EF90DF90CF90BF90AF909F908F9044
:1014F0007F900895809108028111A3CFE0917A0135
:10150000F0917B0196898E89891708F49ACFD09340
:101510007B01C0937A0195CF0F920FB6F8940F928A
:101520001F9211242F923F924F925F926F927F925F
:101530008F929F92AF92BF92CF92DF92EF92FF92E3
:101540000F931F932F933F934F935F936F937F93CB
:101550008F939F93AF93BF93CF93DF93EF93FF93BB
:10156000A0917A01B0917B010DB60D920EB60D924D
:1015700013BE809182018111F9C08091A2019091E6
:10158000A30101969093A3018093A201009781F596
:101590002091B3013091B4014091B1015091B20159
:1015A0005093B4014093B3013093B2012093B10141
:1015B000209186012F5F20938601E091B301F09185
:1015C000B4012081211107C02FEF3FEF3093A50117
:1015D0002093A4010DC0E091B301F091B401058006
:1015E000F681E02D208131813093A5012093A40163
:1015F0002091A4013091A5018217930710F420E0F7
:10160000A1C020E039E0D32EE091B301F091B40104
:101610003081311107C08FEF9FEF9093A501809328
:10162000A40190C0E091B301F091B4010580F6816E
:10163000E02D0680F781E02D4281538184179507C4
:1016400028F45093A5014093A4017CC0A285B385E2
:101650004481558166817781EA017D836C8366814F
:101660007781EB015B834A83AF014E5F5F4F119639
:101670000D911C9112970417150721F412967C9373
:101680006E931197138612863C9131503C93A48936
:10169000B5891097F9F06685778500891189EB0186
:1016A0001D830C8300891189E8017B836A8311966D
:1016B000ED90FC901297BF01645F7F4FE616F7062E
:1016C00021F412961C930E931197158A148A3C915B
:1016D00031503C93A689309106023A1710F4A0933A
:1016E0000602DA9ED0011124AE51BE4F11960D9024
:1016F000BC91A02DB583A48314966D917C91159710
:101700007783668314966D917C911597EB015B83CB
:101710004A8315965C934E93149746894D9DD0014C
:101720001124AE51BE4FB387A2873C913F5F3C93DB
:10173000E0917A01F0917B013689341708F064CF8B
:1017400021E062CFE0917A01F0917B01E689D9E056
:10175000ED9FF0011124EE51FE4F8081823008F0A0
:1017600021E08091870181110EC00AC08091800123
:10177000909181010196909381018093800168C0CE
:10178000222309F465C080918201882321F081E041
:10179000809387015DC010928701A0917A01B0917A
:1017A0007B01E0917A01F0917B012D913C91878939
:1017B000908D82179307A8F080917A0190917B0118
:1017C00080917A0190917B01259A2D9A2FEF87EADB
:1017D00091E6215080409040E1F700C000001D9A42
:1017E000F5CF2091060289E001C02150422F50E040
:1017F000849FF001859FF00D1124EE51FE4F9081E2
:10180000992399F3A181B28112966D917C91728393
:101810006183289FC00111248B519E4F681779075F
:1018200021F4858196819283818389E0849FF001F0
:10183000859FF00D1124EE51FE4F0180F281E02DC5
:101840008681978190937B0180937A012093060291
:10185000A0917A01B0917B01CD91CDBFDD91DEBF2A
:10186000FF91EF91DF91CF91BF91AF919F918F91B8
:101870007F916F915F914F913F912F911F910F91A8
:10188000FF90EF90DF90CF90BF90AF909F908F90A0
:101890007F906F905F904F903F902F901F900F9090
:1018A0000FBE0F900895CF93DF9300D000D01F920A
:1018B000CDB7DEB7E0918A01F0918B011081F12C58
:1018C000E12C112329F00580F681E02DE080F180E4
:1018D0000E9478060E946E066C01809184019091AE
:1018E0008501C816D90608F085C00E94CF04D092A1
:1018F0008501C09284010E943A070091A0011091D5
:10190000A1010FB6F8940F92D8015A96FC905A97FD
:10191000FF2009F430C15C964C915C97442301F19F
:1019200050E016968D919C911797840F951F1796EE
:101930009C938E93169714962D913C911597821730
:10194000930738F08D919C91119717969C938E93E5
:101950001697F80166817781CE0101960E94A0104A
:10196000FA94D8015A96FC925A9718968C9188232B
:1019700039F0C80108960E94870581110E947E06F1
:101980000F900FBED980D7FCB8CF0C811D81D80134
:101990001A968D919C91892B21F0C80102960E9484
:1019A000EF030E946E067C01809184019091850175
:1019B000E816F90610F40E94CF04F0928501E09237
:1019C0008401EFEFED0DE93008F097CF0E2E000CFB
:1019D000FF0BEF50F34FD80152968C9152970C9415
:1019E0008B10740D740DB70D9F0DB10D740D740D2A
:1019F000B70D9F0DD0928501C0928401112351F043
:101A0000CE14DF0470F00E943A07B601C7010E94AD
:101A1000A50473CFE0918801F0918901808161E094
:101A2000811160E00091A0011091A1010FB6F8941E
:101A30000F92D8015D968C915D978F3F11F45D9662
:101A40001C92F801868D8F3F09F4168E0F900FBE01
:101A5000D8015A968C915A9781113CC05296ED91BB
:101A6000FC91A0917A01B0917B011F96FC93EE93BB
:101A70001E97A0917A01B0917B0184819581519646
:101A80009C938E93509780917A0190917B01A481D1
:101A9000B5810C9613969C938E93129780917A0140
:101AA00090917B010C9695838483E0917A01F0916B
:101AB0007B01C8014196958B848BF80181898F5FEA
:101AC000818BC7018C199D09662311F08FEF9FEF61
:101AD0000E94ED04C8010E942C060E943A07811161
:101AE0000CCF0E947E0609CF8160F801828BCA80EC
:101AF000DB80648575856C0D7D1D9601A701C8018D
:101B00000E945704882309F4F8CED80152968C918C
:101B1000529782FF10C01C966D917C916C0D7D1DBB
:101B2000A701C8010E948104D8015096ED91FC9153
:101B3000C8010995E2CE8E7FF801828BF5CF8160D6
:101B400052968C9352976A817B811D967C936E93FB
:101B50001C976E0D7F1D9701A701C8010E945704B5
:101B6000CCCE81FD04C0C8010E940209C6CE8E7F82
:101B7000F801828BC2CE0F900FBE9CCE0E948C0AC1
:101B80001895789484B5826084BD84B5816084BDE5
:101B900085B5826085BD85B5816085BD80916E000B
:101BA000816080936E00109281008091810082603C
:101BB0008093810080918100816080938100809179
:101BC00080008160809380008091B1008460809368
:101BD000B1008091B00081608093B00080917A0064
:101BE000846080937A0080917A00826080937A008A
:101BF00080917A00816080937A0080917A00806879
:101C000080937A001092C100209105013091060165
:101C10008FEF98E0821B930B909302018093010158
:101C20000E94770206EA11E020E040EC50E06CE60A
:101C300071E083E199E00E946409813009F0B3C04A
:101C40000FB6F8940F928091A0019091A101892B79
:101C500009F04FC085E991E00E9449048CE891E0C9
:101C60000E94490485E991E090938B0180938A0159
:101C70008CE891E0909389018093880181E590E060
:101C80000E944609EC01009781F14F969983888361
:101C90008AE08B8F85E08C8F0FB6F8940F92888145
:101CA00099812B8D4C8DBC01249F600D711D1124D9
:101CB0007D836C831A8E9B838A832150330B429FD2
:101CC000B001439F700D1124860F971F9F838E8351
:101CD0008FEF8D8F8E8FCE0108960E944904CE0122
:101CE00041960E9449040F900FBED093A101C0936A
:101CF000A0010F900FBE8091A0019091A101892BAE
:101D000009F451C00EE911E023E045E550E061E738
:101D100071E083E59CE00E946409813009F043C0D2
:101D2000F8942FEF3FEF3093A5012093A401809307
:101D300008021092A3011092A201A89588E190ECEC
:101D40000FB6F894A895809360000FBE9093600042
:101D5000A0917A01B0917B01CD91CDBFDD91DEBF25
:101D6000FF91EF91DF91CF91BF91AF919F918F91B3
:101D70007F916F915F914F913F912F911F910F91A3
:101D8000FF90EF90DF90CF90BF90AF909F908F909B
:101D90007F906F905F904F903F902F901F900F908B
:101DA0000FBE0F900895809100010E947702C0E05D
:101DB000D0E02097F1F30E948A01FBCFEAE0F2E045
:101DC0001382128288EE93E0A0E0B0E084839583D2
:101DD000A683B7838BE091E09183808385EC90E0CC
:101DE0009587848784EC90E09787868780EC90E0E5
:101DF000918B808B81EC90E0938B828B82EC90E0D6
:101E0000958B848B86EC90E0978B868B118E128E4F
:101E1000138E148E08950F931F93CF93DF93823008
:101E2000910510F482E090E0E091A902F091AA02FD
:101E300030E020E0B0E0A0E0309799F421153105C2
:101E400009F44AC0281B390B24303105D8F58A81A2
:101E50009B816115710589F1FB0193838283FE01EA
:101E600011C0408151810281138148175907E0F068
:101E70004817590799F4109761F012960C9312972E
:101E800013961C933296CF01DF91CF911F910F9142
:101E900008950093A9021093AA02F4CF21153105E9
:101EA00051F04217530738F0A901DB019A01BD0137
:101EB000DF01F801C1CFEF01F9CF9093AA0280931F
:101EC000A902CDCFFE01E20FF31F8193919322501F
:101ED000310939832883D7CF2091A7023091A802F6
:101EE000232B41F420910301309104013093A80287
:101EF0002093A702209101013091020121153105A3
:101F000041F42DB73EB74091050150910601241BC5
:101F1000350BE091A702F091A802E217F307A0F4B5
:101F20002E1B3F0B2817390778F0AC014E5F5F4F2F
:101F30002417350748F04E0F5F1F5093A8024093B7
:101F4000A702819391939FCFF0E0E0E09CCFCF93E5
:101F5000DF930097E9F0FC01329713821282A0917F
:101F6000A902B091AA02ED0130E020E01097A1F49F
:101F700020813181820F931F2091A7023091A80206
:101F80002817390709F061C0F093A802E093A7026F
:101F9000DF91CF910895EA01CE17DF07E8F54A8176
:101FA0005B819E0141155105B1F7E901FB83EA838D
:101FB00049915991C40FD51FEC17FD0761F4808139
:101FC00091810296840F951FE9019983888382810C
:101FD00093819B838A83F0E0E0E012968D919C913F
:101FE00013970097B9F52D913C911197CD01029669
:101FF000820F931F2091A7023091A802281739075A
:1020000039F6309751F51092AA021092A902B093B6
:10201000A802A093A702BCCFD383C2834081518181
:10202000840F951FC817D90761F44E5F5F4F8881F1
:102030009981480F591F518340838A819B819383E3
:1020400082832115310509F0B0CFF093AA02E09305
:10205000A9029ECFFD01DC01C0CF13821282D7CF2F
:10206000052E97FB1EF400940E94471057FD07D0E1
:102070000E945A1007FC03D04EF40C944710509560
:102080004095309521953F4F4F4F5F4F0895909564
:102090008095709561957F4F8F4F9F4F08950E9457
:1020A0007C10A59F900DB49F900DA49F800D911D55
:1020B00011240895A1E21A2EAA1BBB1BFD010DC01D
:1020C000AA1FBB1FEE1FFF1FA217B307E407F507E8
:1020D00020F0A21BB30BE40BF50B661F771F881FC4
:1020E000991F1A9469F760957095809590959B015A
:1020F000AC01BD01CF010895A29FB001B39FC00103
:10210000A39F700D811D1124911DB29F700D811D23
:102110001124911D0895EE0FFF1F0590F491E02DFD
:1021200009940E947C10332312F48A1B9B0B0C949D
:102130009B100E947C10B7FF0895821B930B08959B
:10214000FB01DC0102C001900D9241505040D8F7D4
:102150000895DC0101C06D9341505040E0F70895AF
:04216000F894FFCF21
:10216400030000AB02800000000000B90116014327
:102174000106027401520166015265616450686F80
:10218400746F7265736973746F720052656164462B
:102194006C657853656E736F72004D6F746F724423
:1021A4006972656374696F6E00446562756750682F
:1021B4006F746F7265736973746F720044656275CE
:1021C40067466C657853656E736F720049444C457D
:0A21D40000546D7220537663000082
:00000001FF
