:100000000C945D000C9485000C9485000C94850084
:100010000C9485000C9485000C94A1100C94850020
:100020000C9485000C9485000C9485000C9485003C
:100030000C9485000C9485000C9485000C9485002C
:100040000C94FA030C9485000C946A040C944404F8
:100050000C9485000C9485000C9485000C9485000C
:100060000C9485000C9485000000000024002700FB
:100070002A0000000000250028002B0004040404CE
:100080000404040402020202020203030303030342
:10009000010204081020408001020408102001021F
:1000A00004081020000000080002010000030407FB
:1000B00000000000000000008C1111241FBECFEFD3
:1000C000D8E0DEBFCDBF11E0A0E0B1E0E0ECF6E2A9
:1000D00002C005900D92AC37B107D9F722E0ACE72A
:1000E000B1E001C01D92A53BB207E1F710E0CDE5FC
:1000F000D0E004C02197FE010E943913CC35D1070E
:10010000C9F70E94A4100C945E130C94000090E0B8
:10011000FC01EC55FF4F2491FC01E057FF4F349157
:10012000FC01E458FF4FE491EE23C9F0222339F09B
:10013000233001F1A8F4213019F1223029F1F0E047
:10014000EE0FFF1FEE58FF4FA591B4918FB7F894B3
:10015000EC91611126C030953E233C938FBF0895EA
:100160002730A9F02830C9F0243049F78091800069
:100170008F7D03C0809180008F7780938000DFCFD8
:1001800084B58F7784BDDBCF84B58F7DFBCF809125
:10019000B0008F778093B000D2CF8091B0008F7D78
:1001A000F9CF3E2BDACFCF93DF9390E0FC01E057FD
:1001B000FF4F249184589F4FFC0184918823D1F0F4
:1001C00090E0880F991FFC01E859FF4FA591B49169
:1001D000FC01EE58FF4FC591D49161110EC09FB73D
:1001E000F8948C91E22FE0958E238C932881E22362
:1001F000E8839FBFDF91CF9108958FB7F894EC917A
:10020000E22BEC938FBFF6CF8E50806480937C00FE
:1002100080917A00806480937A0080917A0086FDD4
:10022000FCCF80917800909179000895AF92BF92B1
:10023000CF92DF92EF92FF920F931F93CF93DF93B2
:100240006C017B018B01040F151FEB015E01AE18E1
:10025000BF08C017D10759F06991D601ED91FC9103
:100260000190F081E02DC6010995892B79F7C50130
:10027000DF91CF911F910F91FF90EF90DF90CF9082
:10028000BF90AF900895FC01538D448D252F30E031
:10029000842F90E0821B930B541710F0CF96089593
:1002A00001970895FC01918D828D981761F0A28DC0
:1002B000AE0FBF2FB11D5D968C91928D9F5F9F7386
:1002C000928F90E008958FEF9FEF0895FC01918D3C
:1002D000828D981731F0828DE80FF11D858D90E0A9
:1002E00008958FEF9FEF0895FC01918D228D892F46
:1002F00090E0805C9F4F821B91098F73992708952E
:100300008CEE91E00E94740121E0892B09F420E039
:10031000822F08950E94800181110C94000008959D
:1003200080E090E0892B11F00C948A010895FC0183
:10033000A48DA80FB92FB11DA35ABF4F2C91848D46
:1003400090E001968F739927848FA689B7892C93A3
:10035000A089B1898C91837080648C93938D848DF6
:10036000981306C00288F389E02D80818F7D8083F9
:100370000895EF92FF920F931F93CF93DF93EC01B9
:1003800081E0888F9B8D8C8D98131AC0E889F9893C
:10039000808185FF15C09FB7F894EE89FF8960833F
:1003A000E889F98980818370806480839FBF81E0C0
:1003B00090E0DF91CF911F910F91FF90EF90089502
:1003C000F62E0B8D10E00F5F1F4F0F731127E02EDD
:1003D0008C8D8E110CC00FB607FCFACFE889F98915
:1003E000808185FFF5CFCE010E949701F1CFEB8D83
:1003F000EC0FFD2FF11DE35AFF4FF0829FB7F894E9
:100400000B8FEA89FB8980818062CFCFCF93DF9306
:10041000EC01888D8823B9F0AA89BB89E889F9891C
:100420008C9185FD03C0808186FD0DC00FB607FC51
:10043000F7CF8C9185FFF2CF808185FFEDCFCE0184
:100440000E949701E9CFDF91CF910895FC010190BF
:100450000020E9F73197AF01481B590BBC018CEE26
:1004600091E00C9416018F929F92AF92BF920F93DE
:100470001F93CF93DF93CDB7DEB7A1970FB6F89454
:10048000DEBF0FBECDBF19A2423008F44AE08E0194
:100490000F5D1F4F842E912CB12CA12CA50194012E
:1004A0000E940813E62FB901CA01EA30F4F4E05DB6
:1004B000D801EE938D01232B242B252B79F790E087
:1004C00080E0109719F0CD010E942602A1960FB688
:1004D000F894DEBF0FBECDBFDF91CF911F910F917A
:1004E000BF90AF909F908F900895E95CE1CF0F93FC
:1004F0001F9360E08EE00E94D30060E08FE00E94D6
:10050000D30061E082E00E94D30061E083E00E94BA
:10051000D30082E00E94B00C909385018093840107
:1005200082E00E94B00C909389018093880182E060
:100530000E94B00C909387018093860120918401E2
:1005400030918501232B09F46EC0209188013091F0
:100550008901232B09F467C0892B09F464C0E09159
:10056000FC01F091FD0182E08083E091F801F091BF
:10057000F9011082E091FA01F091FB018FEC808388
:1005800010920402E0910002F091010286E0808363
:10059000E091FE01F091FF01808180618083E09114
:1005A000FE01F091FF01808188608083E091FE016F
:1005B000F091FF01808180688083E091FE01F091DD
:1005C000FF0180818F7D808310E000E021E040E822
:1005D00050E069E171E08EEC93E00E94880B21E02D
:1005E00040E850E06BE271E089EA93E00E94880BFA
:1005F00022E040E850E06AE371E08CE793E00E947B
:10060000880B22E040E850E069E471E089E493E07F
:100610000E94880B22E040E850E06CE571E086E142
:1006200093E00E94880B1F910F910895CF93DF9361
:1006300000D0CDB7DEB71A8219824FEF5FEFBE014F
:100640006F5F7F4F80918801909189010E94F30C28
:10065000813099F7C980DA800D2C000CEE08FF0874
:100660004AE0C701B601F7FE0DC06DE28CEE91E0E5
:100670000E94B90166277727CB016C197D098E0985
:100680009F094AE00E9433028CE691E00E94260214
:10069000D4CFCF93DF9300D0CDB7DEB71A821982C3
:1006A0004FEF5FEFBE016F5F7F4F809186019091AA
:1006B00087010E94F30C813099F7C980DA800D2CF4
:1006C000000CEE08FF084AE0C701B601F7FE0DC0B6
:1006D0006DE28CEE91E00E94B90166277727CB018D
:1006E0006C197D098E099F094AE00E9433028CE64D
:1006F00091E00E942602D4CF4FEF5FEF60E871E0F7
:1007000080918401909185010E94F30C8130A1F7C2
:1007100080918201909183010B978534910598F423
:1007200080918001909181018D3291054CF460E0BF
:1007300082E00E94870061E083E00E948700DCCFB6
:1007400061E0C9970CF460E082E00E94870060E0FD
:10075000F3CF8BEFC82E83E0D82EE12CF12C8FE065
:100760000E9404019C01ACE4BFEF0E943F13A7016B
:1007700096010E94DE122C543F4F4F4F5F4F309333
:1007800083012093820160E871E08091840190915F
:1007900085010E94ED090E946907E1CF85ECC82E12
:1007A00083E0D82EE12CF12C8EE00E9404019C0104
:1007B000990F440B550B2A50310941095109AAE5FB
:1007C000B0E00E94FD12A70196010E94DE12265F92
:1007D0003F4F4F4F5F4F309381012093800160E87E
:1007E00071E080918401909185010E94ED090E9441
:1007F0006907DACF1F920F920FB60F9211242F9331
:100800003F938F939F93AF93BF938091B401909147
:10081000B501A091B601B091B7013091B30123E0C9
:10082000230F2D3758F50196A11DB11D2093B3015B
:100830008093B4019093B501A093B601B093B70132
:100840008091AF019091B001A091B101B091B2013E
:100850000196A11DB11D8093AF019093B001A093AB
:10086000B101B093B201BF91AF919F918F913F9130
:100870002F910F900FBE0F901F90189526E8230F11
:100880000296A11DB11DD2CF1F920F920FB60F92EB
:1008900011242F933F934F935F936F937F938F9385
:1008A0009F93AF93BF93EF93FF938CEE91E00E94E1
:1008B0009701FF91EF91BF91AF919F918F917F91A0
:1008C0006F915F914F913F912F910F900FBE0F90BD
:1008D0001F9018951F920F920FB60F9211242F930D
:1008E0008F939F93EF93FF93E091FC01F091FD01B3
:1008F0008081E0910202F091030282FD1BC0908191
:10090000809105028F5F8F7320910602821741F05C
:10091000E0910502F0E0E451FE4F958F80930502CF
:10092000FF91EF919F918F912F910F900FBE0F909C
:100930001F9018958081F4CFCF93DF93FC01A085A1
:10094000B1858281938124813581EC013D832C83A3
:10095000C481D5819B838A8311968D919C91129736
:100960008E179F0721F41296DC93CE931197118670
:1009700010868C9181508C938C91DF91CF9108954A
:100980000F931F93CF93DF938C01FB0180819181A3
:10099000D80113968F3F9807F1F4E801AF81B8852D
:1009A00012968D919C91139793838283EC01FD8322
:1009B000EC83B583A4831396FC93EE93129711876F
:1009C0000087F80180818F5F8083DF91CF911F9135
:1009D0000F910895D90112962D913C911397E90139
:1009E0004881598184179507A8F7DACFFC0103964F
:1009F000928381832FEF3FEF348323839683858314
:100A00009087878310820895FC01738362839187A6
:100A100080874617570790F0421B530B84859585B6
:100A200048175907C8F4BF016E5F7F4F809191014D
:100A3000909192010E94C00480E0089542175307EC
:100A400018F46217730740F4BF016E5F7F4F809107
:100A5000930190919401EECF81E00895EF92FF927F
:100A60000F931F93CF93DF93EC018B017A016C8579
:100A70007D85600F711F9801A701CE010E940405BA
:100A8000811107C0DF91CF911F910F91FF90EF90DF
:100A900008958C859D85080F191FE889F989CE0175
:100AA0000995E5CFEF92FF920F931F93CF93DF93BA
:100AB0008C017B01E0919301F09194010580F68116
:100AC000E02DC681D781CE0102960E949C048A89BE
:100AD00082FF0FC0A701B801CE010E942E05E88950
:100AE000F989CE01DF91CF911F910F91FF90EF9087
:100AF00009948E7F8A8BF3CFE0919301F09194015A
:100B0000808181110DC0809191019091920190930B
:100B1000940180939301F0939201E09391010895E1
:100B20000580F681E02D6FEF7FEF808191810E943B
:100B30005205E2CFFF920F931F93CF93DF93EC0107
:100B4000F62E0091890210918A0280917C01909189
:100B50007D0102960E949C04CF3FDC07E9F5FF204F
:100B6000D9F1E091BD01F091BE01A0917C01B0915D
:100B70007D011596FC93EE931497A0917C01B091A2
:100B80007D018481958117969C938E931697809111
:100B90007C0190917D01A481B581029613969C936E
:100BA0008E93129780917C0190917D01029695839E
:100BB0008483E0917C01F0917D018CEB91E093873F
:100BC00082878091BC018F5F8093BC01DF91CF91C0
:100BD0001F910F91FF900895C00FD11FE0917C01EC
:100BE000F0917D01D383C28360917C0170917D017E
:100BF000C017D10768F48091B8019091B9016E5F78
:100C00007F4FDF91CF911F910F91FF900C94C00403
:100C10008091BA019091BB016E5F7F4F0E94C0042A
:100C20008091AB019091AC01C817D90778F6D093A9
:100C3000AC01C093AB01CACFE091BA01F091BB0106
:100C40008081811107C08FEF9FEF9093AC0180935B
:100C5000AB010895E091BA01F091BB010580F681E6
:100C6000E02D80819181F1CFFC01DB010FB6F8947A
:100C70000F924091890250918A022D913C911197D7
:100C80002F3F320711F18181928160918B02708137
:100C9000761749F04817590730F01D921C9281E0F1
:100CA0000F900FBE0895481B590B42175307A8F722
:100CB000241B350B2D933C9380918B028083809174
:100CC000890290918A029283818380E0E9CFCF9359
:100CD000DF93DC011596ED91FC910680F781E02D04
:100CE000A489B5898685978520893189EC013D8362
:100CF0002C83C089D1899B838A83CF010C9611965E
:100D00002D913C9112972817390721F41296DC9304
:100D1000CE931197158A148A2C9121502C932091EF
:100D20008D01211157C0A285B385848195812681CB
:100D30003781EC013D832C83C681D7819B838A83D5
:100D4000CF01029611962D913C91129728173907E1
:100D500021F41296DC93CE931197138612862C9170
:100D600021502C93C6892091B0022C1710F4C09307
:100D7000B00229E02C9FE0011124C457DD4F098007
:100D8000DA81C02DD583C4834C815D81578346832E
:100D9000AC81BD8113969C938E9312979D838C8317
:100DA000A689A29FD0011124A457BD4FB387A28763
:100DB0008C918F5F8C93A0917C01B0917D0196897D
:100DC00056968C91891730F581E080938C01DF91E4
:100DD000CF910895A091CF01B091D001B787A68798
:100DE00014962D913C911597318B208B1496CD91B3
:100DF000DC9115979B838A8315969C938E93149709
:100E00008EEC91E0958B848B8091CE018F5F8093E7
:100E1000CE01D1CF80E0DBCF0FB6F8940F92809156
:100E2000890290918A020F900FBE089580918D01E2
:100E30008F5F80938D0108950FB6F8940F92FC0197
:100E4000928D0F900FBE81E0911180E00895EF9296
:100E5000FF920F931F93CF93DF93EC010FB6F8949B
:100E60000F921E8D7C0181E1E80EF11C01E011164C
:100E7000D4F08FEF8E8F0F900FBE0FB6F8940F92B5
:100E80001D8D7E0188E0E80EF11C01E01116B4F022
:100E90008FEF8D8F0F900FBEDF91CF911F910F912C
:100EA000FF90EF9008958989882319F3C7010E9464
:100EB0006706811100938C011150D9CF8885882352
:100EC00039F3C7010E946706811100938C0111500C
:100ED000DDCF0F920FB6F8940F921F9211242F922C
:100EE0003F924F925F926F927F928F929F92AF92BA
:100EF000BF92CF92DF92EF92FF920F931F932F93A7
:100F00003F934F935F936F937F938F939F93AF9391
:100F1000BF93CF93DF93EF93FF93A0917C01B091A8
:100F20007D010DB60D920EB60D9280918D01882334
:100F300021F081E080938C015DC010928C01A09122
:100F40007C01B0917D01E0917C01F0917D012D91BA
:100F50003C918789908D82179307A8F080917C013E
:100F600090917D0180917C0190917D01259A2D9A2F
:100F70002FEF87EA91E6215080409040E1F700C0D2
:100F800000001D9AF5CF2091B00289E001C02150E8
:100F9000422F50E0849FF001859FF00D1124E4570B
:100FA000FD4F9081992399F3A181B28112966D91A1
:100FB0007C9172836183289FC001112481579D4FCA
:100FC0006817790721F4858196819283818389E06E
:100FD000849FF001859FF00D1124E457FD4F01809F
:100FE000F281E02D8681978190937D0180937C0131
:100FF0002093B002A0917C01B0917D01CD91CDBF35
:10100000DD91DEBFFF91EF91DF91CF91BF91AF9165
:101010009F918F917F916F915F914F913F912F9110
:101020001F910F91FF90EF90DF90CF90BF90AF9006
:101030009F908F907F906F905F904F903F902F90F8
:101040001F900F900FBE0F9008958F929F92BF92A6
:10105000CF92DF92EF92FF920F931F93CF93DF9384
:101060000FB6F8940F9280918D01815080938D017D
:1010700080918D01882379F080E00F900FBEDF9181
:10108000CF911F910F91FF90EF90DF90CF90BF9085
:101090009F908F9008958091EB01882369F3E090F1
:1010A000D301F090D401F0E0E0E039E041E080913C
:1010B000CE0181115EC0EF2B11F00E941C06E09062
:1010C0008A01F0908B01E114F10409F47DC189E0FB
:1010D000D82ECC24C3940FEF1FEF80918D01811186
:1010E00061C1C0918902D0918A024E018FEF881AA6
:1010F000980A90928A028092890281149104B9F42C
:101100008091BA019091BB012091B8013091B90151
:101110003093BB012093BA019093B9018093B80139
:1011200080918B028F5F80938B020E941C068091BE
:10113000AB019091AC01B12C8816990608F026C13C
:10114000E0917C01F0917D01E689DE9EF0011124A1
:10115000E457FD4F8081823010F0BB24B39480911E
:101160008C01811103C0BB2009F425C1C0928C0100
:1011700022C1D7011696ED91FC91A489B5896685A7
:10118000778580899189EB019D838C838089918902
:10119000EC017B836A83BF01645F7F4F11960D91E1
:1011A0001C9112970617170721F412969C938E93A1
:1011B0001197158A148A8C9181508C93A285B385DE
:1011C0008481958166817781EC017D836C83668162
:1011D0007781EB019B838A83CF01029611960D9153
:1011E0001C9112970817190721F412967C936E939D
:1011F0001197138612862C9121502C93A689209149
:10120000B0022A1710F4A093B0023A9FD001112423
:10121000A457BD4F11960D90BC91A02DB583A4830A
:1012200014966D917C9115977783668314966D91D2
:101230007C911597EB019B838A8315969C938E93E3
:1012400014979689939FD0011124A457BD4FB3875B
:10125000A2878C918F5F8C93A0917C01B0917D01CE
:1012600056968C91891708F022CF40938C011FCF9E
:10127000E091BA01F091BB010580F681E02D068076
:10128000F781E02D828193818816990628F4909346
:10129000AC018093AB0154CFC285D3858481958105
:1012A00026813781DC0115963C932E931497268175
:1012B0003781D90113969C938E931297CF01029692
:1012C00049815A814817590711F43A8329831386B3
:1012D0001286288121502883A489B5891097F9F0B6
:1012E0002685378540895189E9015D834C83408992
:1012F0005189EA013B832A8311966D917C91129763
:101300009F01245F3F4F6217730721F412965C938D
:101310004E931197158A148A2C9121502C93A689EB
:101320002091B0022A1710F4A093B002DA9ED001E7
:101330001124A457BD4F11960D90BC91A02DB583DB
:10134000A48314962D913C91159737832683149688
:101350002D913C911597E9019B838A8315969C9367
:101360008E93149796899D9DD0011124A457BD4F4B
:10137000B387A2878C918F5F8C93E0917C01F09171
:101380007D018689891710F4BB24B394E091BA01DA
:10139000F091BB01808181116BCF1093AC01009360
:1013A000AB01CECE80918A0190918B0101969093F2
:1013B0008B0180938A01D1E0ED1AF10809F08DCEFE
:1013C00010928B0110928A0180918C01882309F47C
:1013D00053CE0E94690781E050CEAF92BF92CF9268
:1013E000DF92EF92FF920F931F93CF93DF9300D082
:1013F00000D01F92CDB7DEB78C017B018FEF9FEF3E
:101400009D838C8380E0680198E0C90ED11C0FB6E3
:10141000F8940F92D8015A962C915A975B969C910A
:101420005B97291708F0B0C05A96DC905A975C96E3
:101430004C915C9741118DC08D919C91892B11F03D
:1014400080E00AC0F801E480F580E114F10439F588
:1014500080E0F80115821482D394D8015A96DC9268
:101460005A9751969C91992321F0C80141960E9468
:10147000670681110E9469070F900FBE81E00F90EF
:101480000F900F900F900F90DF91CF911F910F91C0
:10149000FF90EF90DF90CF90BF90AF900895D7016D
:1014A00092968C919297815092968C9392975696A1
:1014B0002C91569791969C91291751F28111C8CF82
:1014C0005701B2E0AB0EB11CC5010E949C04F701AC
:1014D00081A1868B482F50E024E030E0241B350B9F
:1014E000358724879091B002981710F48093B0024A
:1014F00089E0849FD001859FB00D1124A457BD4F72
:1015000011960D90BC91A02DF701B583A48314967C
:101510002D913C911597378326831496ED91FC917C
:101520001597B382A2821596BC92AE921497D701FA
:101530005696EC915697E89FF0011124E457FD4F21
:101540001B96FC93EE931A9780818F5F808381E0D6
:1015500080CF50E0B70112968D919C910E944E135E
:10156000F801848D22813381820F932F911D938303
:101570008283248135818217930708F461CF8081AB
:101580009181938382835CCF2C813D81232B21F435
:101590000F900FBE80E073CF811109C080918B0244
:1015A00089838091890290918A029B838A830F901C
:1015B0000FBE0E9416070FB6F8940F92F801858DA2
:1015C0008F3F09F4158ED8015E968C915E978F3F00
:1015D00011F45E961C920F900FBEBE016C5F7F4FA0
:1015E000CE0101960E94340681112AC00FB6F894EC
:1015F0000F92F801928D838D0F900FBE98131AC031
:10160000AC80BD8060917C0170917D01645F7F4FF3
:10161000C6010E94C00461E0C5010E949A05C8018C
:101620000E9427070E942508811102C00E946907B5
:1016300081E0EDCEC8010E9427070E942508F8CF5F
:10164000C8010E9427070E942508A4CFCF93DF93EB
:10165000009751F0EC010E941607CE010E9455122E
:10166000DF91CF910C942508DF91CF91089500E090
:1016700010E080918E0181110CC080918C0282302B
:1016800010F00E9469070115110599F30E948A0163
:10169000F0CF0FB6F8940F92E091CA01F091CB0110
:1016A000C681D781CE0102960E949C048091EB01F5
:1016B00081508093EB0180918E01815080938E0147
:1016C0000F900FBE8F89988D0E94260BCE010E942D
:1016D000260BCFCFCF93DF93EC010E941607CE01EC
:1016E0000E94B911EC010E942508209769F4259AFF
:1016F0002D9A2FEF80E792E0215080409040E1F753
:1017000000C000001D9AF5CFCE01DF91CF91089562
:101710007F928F929F92AF92BF92CF92DF92EF9281
:10172000FF920F931F93CF93DF93982EA92E762EBF
:10173000872E7A01B22ECA010E946A0B6C01892B96
:1017400009F4EDC088E290E00E946A0BEC01892B5D
:1017500009F4E2C088E2DE011D928A95E9F7D88E8D
:10176000CF8AA70165EA70E0C6010E945713B1E075
:10177000EB1AF108EF89F88DEE0DFF1D672D782D1E
:10178000CE0149969B01285F3F4FDB014D91BD0182
:10179000DC014D93CD01AB0141505109DA014C916F
:1017A000442319F06217730781F718A2BE8AB9A201
:1017B0001B861A861D8A1C8AD987C88784E090E018
:1017C0008B1991099D878C87DB8BCA8B9082DF01F7
:1017D0001197AC9211971C92119780E88C931197F6
:1017E0001C9257971C9211971C92B397F983E88328
:1017F0000115110519F0F801D183C0830FB6F894D3
:101800000F928091EB018F5F8093EB0180917C01BF
:1018100090917D01892B09F091C0D0937D01C093F7
:101820007C018091EB01813081F58CE892E00E948F
:10183000F60485E992E00E94F6048EE992E00E94A7
:10184000F60487EA92E00E94F60480EE91E00E949E
:10185000F60487ED91E00E94F6048EEC91E00E9480
:10186000F60485EC91E00E94F6048CEB91E00E9476
:10187000F60480EE91E09093BB018093BA0187ED6E
:1018800091E09093B9018093B8018091E9018F5F55
:101890008093E901AE898091B0028A1710F4A09379
:1018A000B00229E02A9FD0011124A457BD4F119600
:1018B0000D90BC91A02DBD83AC8314968D919C910D
:1018C00015979F838E831496ED91FC911597CE0109
:1018D00002969383828315969C938E931497EE8938
:1018E000E29FF0011124E457FD4FFB87EA878081D6
:1018F0008F5F80830F900FBE8091EA01882351F0A3
:10190000E0917C01F0917D0196898E89981710F401
:101910000E94690781E004C0C6010E94260B8FEF78
:10192000DF91CF911F910F91FF90EF90DF90CF90BB
:10193000BF90AF909F908F907F9008958091EA0123
:101940008111A3CFE0917C01F0917D0196898E8970
:10195000891708F49ACFD0937D01C0937C0195CF6D
:101960000F931F93CF93DF93182F0AE0809FC0013E
:1019700011244F960E946A0BEC01009771F14F966B
:10198000998388830B8F1C8F0FB6F8940F928881F0
:1019900099812B8D4C8DBC01249F600D711D1124EC
:1019A0007D836C831A8E9B838A832150330B429FE5
:1019B000B001439F700D1124860F971F9F838E8364
:1019C0008FEF8D8F8E8FCE0108960E94F604CE0188
:1019D00041960E94F6040F900FBECE01DF91CF9189
:1019E0001F910F910895AF92BF92CF92DF92EF9225
:1019F000FF920F931F93CF93DF9300D000D01F92DD
:101A0000CDB7DEB78C016B015D834C8380E058015C
:101A100091E1A90EB11C0FB6F8940F92F801F28C67
:101A2000FF20C9F1448D4423B1F050E086819781B5
:101A3000840F951F978386832481358182179307AE
:101A400020F08081918197838683F8016681778178
:101A5000C6010E944E13FA94F801F28E8085882305
:101A600039F0C80108960E94670681110E94690733
:101A70000F900FBE81E00F900F900F900F900F907E
:101A8000DF91CF911F910F91FF90EF90DF90CF905A
:101A9000BF90AF9008952C813D81232B21F40F90AE
:101AA0000FBE80E0E8CF811109C080918B0289834D
:101AB0008091890290918A029B838A830F900FBE46
:101AC0000E9416070FB6F8940F92F801858D8F3F8C
:101AD00009F4158EF801868D8F3F09F4168E0F904C
:101AE0000FBEBE016C5F7F4FCE0101960E9434068F
:101AF000811125C0C8010E941C078823D1F0EC8009
:101B0000FD8060917C0170917D01645F7F4FC50114
:101B10000E94C00461E0C7010E949A05C8010E94AA
:101B200027070E942508811102C00E94690781E0F1
:101B300072CFC8010E9427070E942508F8CFC8016C
:101B40000E9427070E942508C8010E941C078823BD
:101B500071F3A7CFCF93DF9300D000D01F92CDB702
:101B6000DEB7E0919301F09194011081F12CE12C0A
:101B7000112329F00580F681E02DE080F1800E949C
:101B800016070E940C076C0180918F0190919001C3
:101B9000C816D90608F04CC00E947C05D09290016E
:101BA000C0928F010E94250850E040E0BE016F5FA7
:101BB0007F4F8091A9019091AA010E94F30C882384
:101BC00081F2898187FDF0CF0C811D81D8011A96A1
:101BD0008D919C91892B21F0C80102960E949C0452
:101BE0000E940C077C0180918F0190919001E81672
:101BF000F90610F40E947C05F0929001E0928F01AA
:101C0000E981E150E93080F60E2E000CFF0BE15F18
:101C1000F14FD80152968C9152970C943913920E31
:101C2000920ED60EBE0ED00E920E920ED60EBE0E96
:101C3000D0929001C0928F01112351F0CE14DF0495
:101C400070F00E942508B601C7010E945205ACCF72
:101C5000E0919101F0919201808161E0811160E059
:101C60000091A9011091AA010FB6F8940F92D80122
:101C70005D968C915D978F3F11F45D961C92F801F3
:101C8000868D8F3F09F4168E0F900FBED8015A969D
:101C90008C915A9781113CC05296ED91FC91A09184
:101CA0007C01B0917D011F96FC93EE931E97A0914D
:101CB0007C01B0917D018481958151969C938E9396
:101CC000509780917C0190917D01A481B5810C9603
:101CD00013969C938E93129780917C0190917D0135
:101CE0000C9695838483E0917C01F0917D01C8017D
:101CF0004196958B848BF80181898F5F818BC70119
:101D00008C199D09662311F08FEF9FEF0E949A05B1
:101D1000C8010E9427070E942508811145CF0E9413
:101D2000690742CF8160F801828B2A813B816485FB
:101D30007585620F731FA701C8010E9404058823DF
:101D400009F432CFD80152968C91529782FF12C07B
:101D50006A817B811C968D919C91680F791FA701E8
:101D6000C8010E942E05D8015096ED91FC91C80142
:101D700009951ACF8E7FF801828BF5CF816052963C
:101D80008C9352976A817B811D967C936E931C97EE
:101D90006E0D7F1D9701A701C8010E94040504CFA5
:101DA00081FD04C0C8010E94260BFECE8E7FF80183
:101DB000828BFACE0F920FB6F8940F921F921124D5
:101DC0002F923F924F925F926F927F928F929F924B
:101DD000AF92BF92CF92DF92EF92FF920F931F9339
:101DE0002F933F934F935F936F937F938F939F9323
:101DF000AF93BF93CF93DF93EF93FF93A0917C01B9
:101E0000B0917D010DB60D920EB60D9213BE80916C
:101E10008D018111F9C08091890290918A02019609
:101E200090938A0280938902009781F52091BA01EC
:101E30003091BB014091B8015091B9015093BB0161
:101E40004093BA013093B9012093B80120918B02DD
:101E50002F5F20938B02E091BA01F091BB012081AA
:101E6000211107C02FEF3FEF3093AC012093AB015E
:101E70000DC0E091BA01F091BB010580F681E02D23
:101E8000208131813093AC012093AB012091AB01D3
:101E90003091AC018217930710F420E0A1C020E03C
:101EA00039E0D32EE091BA01F091BB0130813111BC
:101EB00007C08FEF9FEF9093AC018093AB0190C070
:101EC000E091BA01F091BB010580F681E02D06801A
:101ED000F781E02D428153818417950728F45093B0
:101EE000AC014093AB017CC0A285B3854481558190
:101EF00066817781EA017D836C8366817781EB015E
:101F00005B834A83AF014E5F5F4F11960D911C9129
:101F100012970417150721F412967C936E9311976C
:101F2000138612863C9131503C93A489B589109751
:101F3000F9F06685778500891189EB011D830C8393
:101F400000891189E8017B836A831196ED90FC90EA
:101F50001297BF01645F7F4FE616F70621F41296D1
:101F60001C930E931197158A148A3C9131503C931F
:101F7000A6893091B0023A1710F4A093B002DA9E0D
:101F8000D0011124A457BD4F11960D90BC91A02DE6
:101F9000B583A48314966D917C911597778366839E
:101FA00014966D917C911597EB015B834A8315968E
:101FB0005C934E93149746894D9DD0011124A457EC
:101FC000BD4FB387A2873C913F5F3C93E0917C017A
:101FD000F0917D013689341708F064CF21E062CF9B
:101FE000E0917C01F0917D01E689D9E0ED9FF0015F
:101FF0001124E457FD4F8081823008F021E0809168
:102000008C0181110EC00AC080918A0190918B01D0
:10201000019690938B0180938A0168C0222309F472
:1020200065C080918D01882321F081E080938C012F
:102030005DC010928C01A0917C01B0917D01E09176
:102040007C01F0917D012D913C918789908D8217C3
:102050009307A8F080917C0190917D0180917C0193
:1020600090917D01259A2D9A2FEF87EA91E62150D4
:1020700080409040E1F700C000001D9AF5CF20910C
:10208000B00289E001C02150422F50E0849FF0014E
:10209000859FF00D1124E457FD4F9081992399F30A
:1020A000A181B28112966D917C9172836183289F88
:1020B000C001112481579D4F6817790721F485814C
:1020C00096819283818389E0849FF001859FF00D42
:1020D0001124E457FD4F0180F281E02D8681978124
:1020E00090937D0180937C012093B002A0917C01AC
:1020F000B0917D01CD91CDBFDD91DEBFFF91EF911C
:10210000DF91CF91BF91AF919F918F917F916F910F
:102110005F914F913F912F911F910F91FF90EF9001
:10212000DF90CF90BF90AF909F908F907F906F90F7
:102130005F904F903F902F901F900F900FBE0F9089
:1021400008950E94DA0E1895789484B5826084BD53
:1021500084B5816084BD85B5826085BD85B58160AB
:1021600085BD80916E00816080936E001092810029
:1021700080918100826080938100809181008160E4
:1021800080938100809180008160809380008091A5
:10219000B10084608093B1008091B0008160809331
:1021A000B00080917A00846080937A0080917A00F8
:1021B000826080937A0080917A00816080937A00B7
:1021C00080917A00806880937A001092C1002091FB
:1021D0000501309106018FEF98E0821B930B9093DD
:1021E0000201809301010E9477020DEA11E020E0D4
:1021F00040EC50E06FE671E087E39BE00E94880BC3
:10220000813009F07EC00FB6F8940F928091A90139
:102210009091AA01892BD9F48EE991E00E94F604ED
:1022200085E991E00E94F6048EE991E09093940193
:102230008093930185E991E09093920180939101BD
:1022400085E00E94B00C9093AA018093A9010F90A1
:102250000FBE8091A9019091AA01892B09F451C068
:1022600007EA11E023E045E550E064E771E08AEA1F
:102270009DE00E94880B813009F043C0F8942FEF55
:102280003FEF3093AC012093AB018093EA011092B1
:102290008A0210928902A89588E190EC0FB6F89412
:1022A000A895809360000FBE90936000A0917C0180
:1022B000B0917D01CD91CDBFDD91DEBFFF91EF915A
:1022C000DF91CF91BF91AF919F918F917F916F914E
:1022D0005F914F913F912F911F910F91FF90EF9040
:1022E000DF90CF90BF90AF909F908F907F906F9036
:1022F0005F904F903F902F901F900F900FBE0F90C8
:102300000895809100010E947702C0E0D0E02097FC
:10231000F1F30E948A01FBCFECEEF1E0138212820E
:1023200088EE93E0A0E0B0E084839583A683B78332
:102330008BE091E09183808385EC90E095878487A2
:1023400084EC90E09787868780EC90E0918B808B7F
:1023500081EC90E0938B828B82EC90E0958B848B68
:1023600086EC90E0978B868B118E128E138E148ED6
:1023700008950F931F93CF93DF938230910510F44C
:1023800082E090E0E091B302F091B40230E020E00E
:10239000B0E0A0E0309799F42115310509F44AC066
:1023A000281B390B24303105D8F58A819B816115B2
:1023B000710589F1FB0193838283FE0111C0408185
:1023C00051810281138148175907E0F048175907D6
:1023D00099F4109761F012960C93129713961C9330
:1023E0003296CF01DF91CF911F910F910895009305
:1023F000B3021093B402F4CF2115310551F0421706
:10240000530738F0A901DB019A01BD01DF01F80192
:10241000C1CFEF01F9CF9093B4028093B302CDCF37
:10242000FE01E20FF31F819391932250310939830A
:102430002883D7CF2091B1023091B202232B41F4EF
:1024400020910301309104013093B2022093B10234
:1024500020910101309102012115310541F42DB780
:102460003EB74091050150910601241B350BE091C8
:10247000B102F091B202E217F307A0F42E1B3F0B5A
:102480002817390778F0AC014E5F5F4F24173507E6
:1024900048F04E0F5F1F5093B2024093B1028193F8
:1024A00091939FCFF0E0E0E09CCFCF93DF93009734
:1024B000E9F0FC01329713821282A091B302B0912D
:1024C000B402ED0130E020E01097A1F420813181C9
:1024D000820F931F2091B1023091B2022817390761
:1024E00009F061C0F093B202E093B102DF91CF91A5
:1024F0000895EA01CE17DF07E8F54A815B819E0166
:1025000041155105B1F7E901FB83EA8349915991DE
:10251000C40FD51FEC17FD0761F4808191810296ED
:10252000840F951FE90199838883828193819B831E
:102530008A83F0E0E0E012968D919C9113970097CA
:10254000B9F52D913C911197CD010296820F931F01
:102550002091B1023091B2022817390739F630972D
:1025600051F51092B4021092B302B093B202A0934C
:10257000B102BCCFD383C28340815181840F951FA8
:10258000C817D90761F44E5F5F4F88819981480F62
:10259000591F518340838A819B81938382832115B4
:1025A000310509F0B0CFF093B402E093B3029ECFAF
:1025B000FD01DC01C0CF13821282D7CF052E97FB1D
:1025C0001EF400940E94F51257FD07D00E940813D4
:1025D00007FC03D04EF40C94F512509540953095BD
:1025E00021953F4F4F4F5F4F08959095809570957F
:1025F00061957F4F8F4F9F4F08950E942A13A59F8B
:10260000900DB49F900DA49F800D911D11240895ED
:10261000A1E21A2EAA1BBB1BFD010DC0AA1FBB1FE6
:10262000EE1FFF1FA217B307E407F50720F0A21B58
:10263000B30BE40BF50B661F771F881F991F1A94C5
:1026400069F760957095809590959B01AC01BD01EF
:10265000CF010895A29FB001B39FC001A39F700D49
:10266000811D1124911DB29F700D811D1124911D9A
:102670000895EE0FFF1F0590F491E02D09940E943C
:102680002A13332312F48A1B9B0B0C9449130E94C8
:102690002A13B7FF0895821B930B0895FB01DC01F9
:1026A00002C001900D9241505040D8F70895DC01CE
:1026B00001C06D9341505040E0F70895F894FFCF6A
:1026C000030000B502800000000000B901160143BC
:1026D0000106027401520166015265616450686F1F
:1026E000746F7265736973746F72005265616446CA
:1026F0006C657853656E736F72004D6F746F7244C2
:102700006972656374696F6E0044656275675068CD
:102710006F746F7265736973746F7200446562756C
:1027200067466C657853656E736F72000D0A0049D9
:0C273000444C4500546D72205376630049
:00000001FF
