:1000000034C0000057C0000055C0000053C00000BD
:1000100051C000004FC000004DC000004BC00000A8
:1000200049C0000047C0000045C0000043C00000B8
:1000300041C00000FCC100003DC000003BC000000A
:1000400071C3000037C000001CC500004CC5000093
:1000500031C000002FC000002DC000002BC00000E8
:1000600029C0000027C00000980511241FBECFEF53
:10007000D8E0DEBFCDBF11E0A0E0B1E0E8E3FCE0F6
:1000800002C005900D92A431B107D9F721E0A4E197
:10009000B1E001C01D92A53EB207E1F710E0C5E353
:1000A000D0E003C02197FE01BFD5C433D107D1F7FB
:1000B00020D2C0C5A5CFCF92DF92EF92FF92809160
:1000C000C901811119C081E08093C9011092C30157
:1000D0001092C4011092C5011092C60180E090E018
:1000E000A0E8BFE38093CF019093D001A093D1010A
:1000F000B093D20183E03BC0C090C301D090C40153
:10010000E090C501F090C6018091CA01823009F4E7
:1001100080C0833009F4B3C0813009F0D6C020E03C
:1001200030E040E752E4C701B6017FD287FF22C02A
:1001300020E030E0A9016091CB017091CC01809169
:10014000CD019091CE0171D2882309F451C020E0F5
:1001500030E040E85FE3C701B60103D26093C3011A
:100160007093C4018093C5019093C60182E080938F
:10017000CA0167C020E030E040E752E4C701B601A1
:10018000CDD287FD2CC020E030E0A9016091CB01E9
:100190007091CC018091CD019091CE0146D28823FF
:1001A000F1F080E090E0A0E8BFE38093D30190936A
:1001B000D401A093D501B093D6011092D70110922B
:1001C000D8011092D9011092DA011092C301109255
:1001D000C4011092C5011092C60184E0C8CF20E08E
:1001E00030E040E752E4C701B6011FD287FF29C0C3
:1001F00020E030E040E85FE3C701B601B2D1609390
:10020000C3017093C4018093C5019093C60181E03E
:10021000AECF20E030E040E752E4C701B6017ED225
:1002200087FFBFCF20E030E040E85FE3C701B601C1
:1002300098D16093C3017093C4018093C5019093DA
:10024000C6018091C701811176C081E08093C7010A
:100250001092BF011092C0011092C1011092C20110
:1002600040E050E060E87FE34093DF015093E0011D
:100270006093E1017093E2018093C80196C020E091
:1002800030E040E752E4C701B60148D287FDCACF4B
:1002900080E090E0A0E8BFE38093D7019093D8017D
:1002A000A093D901B093DA011092CF011092D0013E
:1002B0001092D1011092D2011092C3011092C40188
:1002C0001092C5011092C601A2CF20E030E040EAB2
:1002D00050E4C701B60122D287FD1DC080E090E046
:1002E000A0E8BFE38093CF019093D001A093D10108
:1002F000B093D2011092D3011092D4011092D50183
:100300001092D6011092C3011092C4011092C5013F
:100310001092C601EFCE20E030E040E85FE3C70175
:10032000B6011FD16093C3017093C4018093C501CE
:100330009093C60152CF8091C8018130D9F5C09009
:10034000BF01D090C001E090C101F090C20120E057
:1003500030E040E752E4C701B601E0D187FD16C0A6
:1003600080E090E0A0E8BFE38093DB019093DC01A4
:10037000A093DD01B093DE011092DF011092E00145
:100380001092E1011092E20182E076CF20E030E0AD
:1003900040E85FE3C701B601E4D06093BF0170930A
:1003A000C0018093C1019093C201FF90EF90DF9054
:1003B000CF90089520E030E040E85FE36091CF0106
:1003C0007091D0018091D1019091D2012ED18111F3
:1003D000ECCF80E090E0A0E8BFE38093DF01909352
:1003E000E001A093E101B093E2011092DB011092D1
:1003F000DC011092DD011092DE011092BF0110921B
:10040000C0011092C1011092C20181E035CF089560
:10041000089540E855E260E070E090E080E000C0C0
:10042000892B21F426E082E291E0CBC208951F924D
:100430000F920FB60F9211242F933F934F935F9318
:100440006F937F938F939F93AF93BF93EF93FF939C
:100450008BEC93EF909385008093840032D0FF91D2
:10046000EF91BF91AF919F918F917F916F915F912C
:100470004F913F912F910F900FBE0F901F901895A5
:100480008BEC93EF9093850080938400AFE6B0E00F
:100490008C918E7F8C93E0E8F0E080818C7F80836C
:1004A000E1E8F0E08081877E8083808185608083C1
:1004B00080818D7F80838C9181608C93089581E011
:1004C00008958091160191E0980F9093160188236A
:1004D00049F021E030E03093180120931701809318
:1004E000160108957894E7DDF89480911601815003
:1004F000F6CFCF93DF931092E4011092E3015CD129
:1005000088DFC0910001D0910101198218827FDF3C
:10051000F894B6DF2881398181E0232B09F080E04F
:100520008093E301789478948091E301811107C06E
:100530006FDFF89490E080E0DF91CF9108952881FB
:10054000398181E0232B09F480E08093E4019091CC
:10055000E40181E0911180E08093E301B0DFE4CF1A
:100560005058BB27AA270ED09FC090D030F095D00E
:1005700020F031F49F3F11F41EF485C00EF4E09595
:10058000E7FB7BC0E92FA1D080F3BA17620773079E
:100590008407950718F071F49EF5B9C00EF4E09544
:1005A0000B2EBA2FA02D0B01B90190010C01CA012D
:1005B000A0011124FF27591B99F0593F50F4503ED8
:1005C00068F11A16F040A22F232F342F4427585FCA
:1005D000F3CF469537952795A795F0405395C9F7E2
:1005E0007EF41F16BA0B620B730B840BBAF091509A
:1005F000A1F0FF0FBB1F661F771F881FC2F70EC039
:10060000BA0F621F731F841F48F48795779567950B
:10061000B795F7959E3F08F0B3CF9395880F08F0F4
:100620009927EE0F97958795089503D008F481E0F8
:100630000895990F0008550FAA0BE0E8FEEF161673
:100640001706E807F907C0F012161306E407F507C6
:1006500098F0621B730B840B950B39F40A2661F03A
:10066000232B242B252B21F408950A2609F4A140DD
:10067000A6958FEF811D811D089597F99F6780E8EA
:1006800070E060E008959FEF80EC089500240A94E4
:100690001616170618060906089500240A9412165D
:1006A0001306140605060895092E0394000C11F490
:1006B000882352F0BB0F40F4BF2B11F460FF04C03D
:1006C0006F5F7F4F8F4F9F4F089557FD9058440F96
:1006D000551F59F05F3F71F04795880F97FB991FA1
:1006E00061F09F3F79F0879508951216130614065E
:1006F000551FF2CF4695F1DF08C0161617061806EB
:10070000991FF1CF86957105610508940895E894C5
:10071000BB2766277727CB0197F908958ADF08F46E
:100720008FEF08951F920F920FB60F9211242F93FF
:100730003F938F939F93AF93BF9380911A019091B2
:100740001B01A0911C01B0911D013091190123E002
:10075000230F2D3758F50196A11DB11D20931901C6
:1007600080931A0190931B01A0931C01B0931D016B
:1007700080911E0190911F01A0912001B091210153
:100780000196A11DB11D80931E0190931F01A0939E
:100790002001B0932101BF91AF919F918F913F9123
:1007A0002F910F900FBE0F901F90189526E8230FE2
:1007B0000296A11DB11DD2CF789484B5826084BD0C
:1007C00084B5816084BD85B5826085BD85B5816055
:1007D00085BDEEE6F0E0808181608083E1E8F0E0B5
:1007E0001082808182608083808181608083E0E8E4
:1007F000F0E0808181608083E1EBF0E080818460C3
:100800008083E0EBF0E0808181608083EAE7F0E0C4
:100810008081846080838081826080838081816028
:1008200080838081806880831092C1000895FC01DC
:10083000918D228D892F90E0805C9F4F821B9109C2
:100840008F7399270895FC01918D828D981731F04F
:10085000828DE80FF11D858D90E008958FEF9FEF59
:100860000895FC01918D828D981761F0A28DAE0FD5
:10087000BF2FB11D5D968C91928D9F5F9F73928F5C
:1008800090E008958FEF9FEF0895FC01538D448D04
:10089000252F30E0842F90E0821B930B541710F02B
:1008A000CF96089501970895FC01A48DA80FB92F44
:1008B000B11DA35ABF4F2C91848D90E001968F7388
:1008C0009927848FA689B7892C93A089B1898C91A7
:1008D000837080648C93938D848D981306C00288F6
:1008E000F389E02D80818F7D80830895CF93DF93FE
:1008F000EC01888D8823B1F0AA89BB89E889F98940
:100900008C9185FD03C0808186FD0CC00FB607FC6D
:10091000F7CF8C9185FFF2CF808185FFEDCFCE019F
:10092000C3DFEACFDF91CF910895EF92FF920F934B
:100930001F93CF93DF93EC0181E0888F9B8D8C8D8B
:1009400098131AC0E889F989808185FF15C09FB77F
:10095000F894EE89FF896083E889F9898081837042
:10096000806480839FBF81E090E0DF91CF911F91F1
:100970000F91FF90EF900895F62E0B8D10E00F5F12
:100980001F4F0F731127E02E8C8D8E110BC00FB6E9
:1009900007FCFACFE889F989808185FFF5CFCE0180
:1009A00083DFF2CFEB8DEC0FFD2FF11DE35AFF4FEC
:1009B000F0829FB7F8940B8FEA89FB89808180626F
:1009C000D0CFCF92DF92EF92FF921F93CF93DF931E
:1009D000EC016A017B01122FE889F98982E08083AA
:1009E000C11481EED806E104F10499F060E079E0E9
:1009F0008DE390E0A7019601F5D02150310941091E
:100A000051095695479537952795211580E1380767
:100A100090F0E889F989108260E874E88EE190E04E
:100A2000A7019601DFD0215031094109510956959E
:100A3000479537952795EC85FD853083EE85FF85B5
:100A40002083188EEC89FD891083EA89FB898081D7
:100A500080618083EA89FB89808188608083EA895C
:100A6000FB89808180688083EA89FB8980818F7D12
:100A70008083DF91CF911F91FF90EF90DF90CF9017
:100A800008951F920F920FB60F9211242F938F93F8
:100A90009F93EF93FF93E0913201F09133018081B6
:100AA000E0913801F091390182FD1BC09081809165
:100AB0003B018F5F8F7320913C01821741F0E091E1
:100AC0003B01F0E0EE5DFE4F958F80933B01FF917F
:100AD000EF919F918F912F910F900FBE0F901F90CC
:100AE00018958081F4CF1F920F920FB60F921124A8
:100AF0002F933F934F935F936F937F938F939F9326
:100B0000AF93BF93EF93FF9382E291E0CDDEFF912D
:100B1000EF91BF91AF919F918F917F916F915F9175
:100B20004F913F912F910F900FBE0F901F901895EE
:100B3000E2E2F1E01382128288EE93E0A0E0B0E0FE
:100B400084839583A683B78386E091E09183808335
:100B500085EC90E09587848784EC90E09787868782
:100B600080EC90E0918B808B81EC90E0938B828B7A
:100B700082EC90E0958B848B86EC90E0978B868B53
:100B8000118E128E138E148E0895AF92BF92CF9253
:100B9000DF92EF92FF920F931F93CF93DF936C013D
:100BA0007B018B01040F151FEB015E01AE18BF081E
:100BB000C017D10759F06991D601ED91FC910190D0
:100BC000F081E02DC6010995892B79F7C501DF91E8
:100BD000CF911F910F91FF90EF90DF90CF90BF903A
:100BE000AF900895A1E21A2EAA1BBB1BFD010DC0F8
:100BF000AA1FBB1FEE1FFF1FA217B307E407F507CD
:100C000020F0A21BB30BE40BF50B661F771F881FA8
:100C1000991F1A9469F760957095809590959B013E
:100C2000AC01BD01CF010895EE0FFF1F0590F491B7
:080C3000E02D0994F894FFCFB8
:100C38001401000000009504C50545047604170456
:040C4800310423044C
:00000001FF
